:020000041000EA
:1000000000B5324B212058609868022188439860DF
:10001000D860186158612E4B002199600221596106
:100020000121F02299502B49196001219960352056
:1000300000F044F80222904214D00621196600F024
:1000400034F8196E01211966002018661A6600F04E
:100050002CF8196E196E196E052000F02FF8012189
:100060000842F9D1002199601B49196000215960AB
:100070001A491B48016001219960EB211966A021F2
:10008000196600F012F800219960164914480160C1
:100090000121996001BC002800D000471248134993
:1000A000086003C880F30888084703B5996A0420EC
:1000B0000142FBD001200142F8D103BD02B5186610
:1000C0001866FFF7F2FF186E186E02BD00000240BE
:1000D000000000180000070000035F00212200005C
:1000E000F4000018222000A00001001008ED00E03C
:1000F00000000000000000000000000074B24E7A12
:1001000000200420F7010010C3010010C5010010F9
:10011000C1010010C1010010C1010010C101001097
:10012000C1010010C1010010C10100104D260010D6
:10013000C1010010C1010010E1250010C52600100A
:10014000CD010010CD010010CD010010CD01001037
:10015000CD010010CD010010CD010010CD01001027
:10016000CD010010CD010010CD010010CD01001017
:10017000CD010010CD010010CD010010CD01001007
:10018000CD010010CD010010CD010010CD010010F7
:10019000CD010010CD010010CD010010CD010010E7
:1001A000CD010010CD010010CD010010CD010010D7
:1001B000CD010010CD010010CD010010CD010010C7
:1001C00000BE00BE00BE00BE00BE00BEEFF3058054
:1001D000103800BEF2EB88710C3900102C39001079
:1001E0003802001090A31AE71E481F49086006C88D
:1001F00081F3088810471D480068002801D019487D
:10020000F3E70DA40ECC002902D000F012F8F9E7B4
:100210001749184A002000E001C19142FCD116495B
:100220008847164988471649884700BEFDE701C937
:1002300001C29A42FBD370472C390010C000002045
:1002400048070020B43F00100000042000000420F4
:10025000B43F001000100420001004200000000033
:10026000704700000000000008ED00E0000000D032
:1002700048070020580E00204913001039030010D1
:1002800041130010F8B5C04606480749091A8B10FB
:10029000C90FC91810B5491003D0044B002B00D06A
:1002A000984710BD480700204807002000000000C4
:1002B000054B10B5002B03D00449054800E000BFF2
:1002C000FFF7E2FF10BDC04600000000C80C002090
:1002D000B437001010B5192000F050F8D023802258
:1002E0001B0692045A6200209A6101F0B3FB10BD14
:1002F00070B5D02480252406AD040CE0FA20656199
:10030000800001F029FD63682B420FD10123636156
:10031000084801F021FD63682B42EFD0FA20A56167
:10032000800001F019FD63682B42EFD00123A36127
:10033000EEE7C046B80B000010B582B001F0F8F847
:1003400000240223802209490093094800230194D4
:1003500001F0EAFA012380220649009306480023AF
:10036000019401F0E1FA01F0D5FBFEE7B43700108B
:10037000D5020010BC370010F10200100123D0227A
:100380008340120693629361094A83009A181168A8
:100390004022514080320A400649C0008C466344E6
:1003A0001A60054B9C460523604443607047C04675
:1003B00004C0014004D00140004001400FB400B52A
:1003C000084883B001F000F9049B002B07D005A971
:1003D0001800019100F080FF034801F0F5F80120BA
:1003E00000F092FFC4370010D437001010B5014858
:1003F000FFF7E4FFD837001070B5EFF3108C72B63A
:100400000D4D2B68002BFCD0BFF35F8F0724CB086A
:10041000C618C05C01230C40A3401C0004400342EA
:1004200007D118433070BFF35F8F2C608CF31088B6
:1004300070BD1000FFF7C2FF2C0100D0044A1078F5
:10044000431CDBB2172B00D9102313707047C04632
:10045000980100200021044B044ABFF35F8F02C3C0
:100460009342FAD17047C046000100D0800100D00D
:10047000054B064A1360064A136053609360D360CD
:1004800013615361936170478080808000E400E0D5
:1004900004E400E01F2318401E3B8340002905D0E0
:1004A000C021044A4900535013607047802201491B
:1004B0008B50FAE700E100E070B50D00EFF3108615
:1004C00072B60F4A1368002BFCD0BFF35F8F0D4B41
:1004D00010309B6884001B590B4A934203D09D4205
:1004E00001D000F013FD074B9B681D51BFF35F8FD8
:1004F000BFF35F8F0022024B1A6086F3108870BD35
:10050000240100D000ED00E0CD010010024B9C461C
:1005100061448900016070474000003470B5114C9F
:10052000114DAC420FD2FF262368002B0CD0FFF7F1
:1005300085FF01002000FFF7E9FFA680BFF35F8F72
:100540000834AC42F0D370BDFFF778FF0100200003
:10055000FFF7DCFF2671BFF35F8F0834AC42E3D3B3
:10056000F1E7C04640070020480700200A4B196801
:10057000EFF3108072B60A68002AFCD0BFF35F8FD9
:100580001B68BFF35F8F00221A6080F3108840BFA2
:10059000002000217047C046840D0020F0B5DE46E3
:1005A00057464E464546E0B587B0EFF30583032234
:1005B00001251A40954091008846A946B34B039205
:1005C0005C58B34B1D60B34B04934B46B248436336
:1005D0000823E55E002D37DAA3881BB2002B00DB71
:1005E000ADE0A379002B00D0EEE00823E05E002808
:1005F00020DB430062691B18DB00D3189E68DD68AE
:10060000731C00D111E1A44801004144826A0B69C6
:10061000B71A9B1A9F4215D30123026A039883409D
:100620001A420FD09C4800F0C9FA8D4202DCCCD1AE
:100630008642CAD940BF07B0F0BCBB46B246A94605
:10064000A046F0BD0E61EDE762696B0092465B1952
:10065000DB009A4453469E68DF6800F0AFFA8F4291
:10066000BADC00D103E1002F00DAE8E0524653463D
:1006700052691B699346049A934200D1D9E05246CD
:100680000821605E52880004594610439847009044
:1006900001910099019A0B001000134300D1CEE0A4
:1006A00013000A00B61A9F41002806DB7A4800F0C2
:1006B00085FA009E019F36184F4153469E60DF60C9
:1006C00000229A5E002A00DA86E7530099186069D2
:1006D000C900411802938B68C9689B46B94200DD86
:1006E0007AE702D1B34200D976E708239C46A444B6
:1006F000059565462281A446029B2C0006E0530026
:100700009918C90041188D68C968AB469B18DB0071
:10071000C318B94206DC00D1B3E01C000023E25E3E
:10072000002AECDA230064469C4653461A8063464E
:10073000059D1D80A3881BB2002B00DA51E72269BA
:10074000EFF3108172B61368002BFCD0BFF35F8FFC
:100750000123A7885B42A3803FB22369BFF35F8F69
:1007600000221A6081F31088002F00DA39E7230095
:10077000083322009A4666697B00DB19DB00F31818
:10078000996850468C460824115FDD68002910DB0B
:10079000029306E0AB4244D00023E15E2000002932
:1007A00006DB4C006418E4003419E368AB42F1DD69
:1007B000029B078000201F5E1980002FDCDA1400E6
:1007C000A379002B00D110E70023A3712600082392
:1007D000E15E08364B1C00D12CE70800A246656993
:1007E00002E03E004B1C1AD04B005B18DB00EF18F8
:1007F0000A008C46E95E7B881BB2002BF1DA0123EC
:100800005B42DC17BB60FC60824205D053463180FE
:100810001B893B8053461A8160464B1CE4D15446E9
:10082000E5E6A3686345B7D9C2E76B1C00D0EAE6EA
:10083000F8E65B4658461B69984700281BD153468B
:100840001B8822692381EFF3108372B61168002997
:10085000FCD0BFF35F8F514662880A8022696580B1
:10086000BFF35F8F0021116083F31088B4E68642E6
:1008700000D8F8E6B0E65B461A685B680092019320
:1008800007E7B34500D848E74CE7C046E00C002036
:100890003C7005409D0500100040054070B52E4C91
:1008A0002569002D04D00A212C48FFF72FFE70BDCA
:1008B0002B4E0321300000F077F9E660FFF7BEFD14
:1008C000284B03229C46D02322701B061B68012163
:1008D0006370254B6044A3600F23800020610220D9
:1008E000638063694942A1801980023119864731CA
:1008F0001D83585218315A5275325C399952183248
:1009000001319952183201319952183201319952FC
:10091000083518329D52023118329952183201317D
:1009200099521832013199521832013199521832C4
:10093000013199521832013199520C4B0C49DC604B
:1009400001303562FFF7B8FD01210320FFF7A2FD5A
:10095000084B1D60A7E7C0469C010020840D0020C5
:100960000040054040000034FFFF1000E00C002074
:100970009D0500103860054070B501000469EFF373
:10098000108C72B620680028FCD0BFF35F8F022065
:100990000D5E4C6968004019C00024180869002DDC
:1009A00036DB26884E80BFF35F8F002606608CF30F
:1009B0001088E36063880498013320615B04059824
:1009C0005B0CA26060611A1C002B1FD093B228043C
:1009D000628018430A69EFF3108C72B61368002B1B
:1009E000FCD0BFF35F8F8B8823808D800B69BFF3B2
:1009F0005F8F00221A608CF310880B7801329A40C6
:100A0000CB6808498C4663441A6070BD0122DDE75B
:100A1000BFF35F8F002303608CF3108801204042F6
:100A2000F3E7C0463C20000010B543890A14934206
:100A30001ADD53009B184269DB00D3180469EFF3F9
:100A4000108C72B62268002AFCD0BFF35F8F5A88E0
:100A5000090494B2090C8A4208D00369BFF35F8F7E
:100A600000221A608CF31088002010BD8022120230
:100A700014435C80012302698371BFF35F8F0021FF
:100A800011608CF31088044902788C469340C26848
:100A9000012062441360E8E73C200000F0B55746AF
:100AA0004E46DE464546E0B506000F0085B0EFF342
:100AB000058399468B46002B12D0384900204B6A9B
:100AC000BB4206D38A6ADB1B591E8B41B2424041AE
:100AD000184305B0F0BCBB46B246A946A046F0BDDF
:100AE0002F4B9A46DB68984653461B784046039343
:100AF00000F064F84246039B040004339B009B58BB
:100B00000D001B1A39003000001BA941894510DC7B
:100B10000DD020BF214A0020536A5B45D9D3926A89
:100B2000DB1B591E8B41B24240411843D1E783423F
:100B3000EFD900F04BF832003B00121A8B41002B2A
:100B40001ADB00230193174B3200009350463B0001
:100B5000FFF712FF011E0FDD104B5A6A5A451BD3D7
:100B60009B6AB34216D35046FFF75EFF0B4A002044
:100B7000536A5B45ADD3D2E7084A0020536A5B4510
:100B8000A7D30020926ADB1BB24240415A1E934118
:100B900018439EE75A45E6D120BFE4E700400540F0
:100BA0009C0100206D05001010B5024A0248FFF7B5
:100BB00023FC10BDE8370010880C00200300416AB8
:100BC0000A00986A596A8A42FAD17047034B596AF7
:100BD0000A00986A596A9142FAD17047004005406C
:100BE000F8B5DE464E4657464546E0B58B4605000D
:100BF0000A991800160000F067FA0A9B6C001F02A1
:100C0000324B64199C46A4006444636881469F4249
:100C100000D967602B1FDBB29846012B30D9C02367
:100C200080229B01E31812011A60294BAD0059592B
:100C30009A4600291BD17301E026226853401E40CA
:100C4000802342465B01E3181E60012A30D98023CD
:100C500080229B01E31812011A6053464A466760DE
:100C60005A51F0BCBB46B246A946A046F8BD5869E9
:100C700000F02AFA013043001B18033BFDD2DAE7EB
:100C80005B46012BCBD1C02303229B01E3181A60E2
:100C9000023AA3681A42FCD07301E0262268AD0034
:100CA00053401E4080230A4A5B019246E3181E60AF
:100CB0005A462168514003220A401A6001225B46CD
:100CC0009A40A3681A42FCD0C1E7C04600800040A9
:100CD0008C0C0020F0B546464F46D646C0B51F00E6
:100CE000344B44009C462418A4006444636888463E
:100CF0001600FF2B02D880235B006360031FDBB26A
:100D00009A46012B30D9C02380229B01E31812019F
:100D10001A60294B85005959994600291BD1730146
:100D2000E026226853401E40802352465B01E318B0
:100D30001E60012A30D9802380229B01E318120112
:100D40001A6080235B0063604B465F51E0BCBA468B
:100D5000B146A846F0BD586900F0B6F9013043002D
:100D60001B18033BFDD2DAE74346012BCBD1C0234E
:100D700003229B01E3181A60023AA3681A42FCD0CE
:100D80007301E0262268850053401E4080230A4AF2
:100D90005B019146E3181E604246216851400322E0
:100DA0000A401A60012342469340A2681342FCD0D5
:100DB000C1E7C046008000408C0C0020014B800041
:100DC000C05870478C0C0020F8B5040021481E0064
:100DD00017000D0000F078F90100380000F074F9F8
:100DE000069B36041B031E432368002B20DB1A4B93
:100DF0001A49E3185A1E93418022920194465B429D
:100E00001B0B174A1B0363441360164A13601F0031
:100E10000A689743FBD1144B2560E2182123A06098
:100E200013602368002BFCDA0823E6601360F8BD2A
:100E30003F2322681340AB42D9D1A3681B051B0D89
:100E40008342D4D1EE22E368D2021340B342CED122
:100E5000EDE7C046001BB7000040FDBF08C00040E2
:100E600000E0004000F00040043000008023024A0F
:100E70009B000B43D362704700800540002310B5F0
:100E80000100988A1B8B984710BDC046162310B5E9
:100E90000100188802331B88984710BDF8B54746F3
:100EA000CE4680B50F1E18D0142399460433040093
:100EB0000025012698464B461888434621681B8822
:100EC000984701C4431E984101350640AF42F2D114
:100ED0003000C0BCB946B046F8BD0126F8E7C046B0
:100EE000AA23064A1B0113608D235B00D3600449CB
:100EF000044B19605368002BFCDA70470040024035
:100F000000B0FA00006002407047C04610B50148CA
:100F1000FFF754FA0C38001070B5074D074EB54274
:100F200009D20024013E761BB60808CD984723005D
:100F30000134B342F9D170BD70370010AC370010E6
:100F4000054B064A06491A60064A074B1A6010000C
:100F50000B689843FBD1704700E00040BFCDFBFE1B
:100F600008C00040FE7F3C0000F00040044BDB6CFA
:100F7000002B03D18022034BD2021A607047C04677
:100F8000000011504C201150044A054B1A60054ACC
:100F90001368DB018033FBD17047C046FFFFFF01C0
:100FA00000F0004008C000404022034B9A675A6797
:100FB0001A67DA667047C04600F0014010B5FFF7C7
:100FC00049FA10BD70B5044D044CA968C022200038
:100FD00000F074F9AC6070BD00ED00E0000000208E
:100FE000002310B5294C82B0A367FFF779FF0122D7
:100FF000274B1A60636C012BFCD10322254B1A602E
:10100000224A936B012BFCD1013300930121224A28
:1010100022480433FFF7D8FE052301210093204A1C
:101020002048FFF7D1FE0022022104201E4BFFF7CB
:1010300051FE0022012105201C4BFFF74BFE002230
:10104000002107201A4BFFF745FE0022002108204F
:10105000174BFFF73FFE8023DB00009300220021A7
:101060000920134BFFF7BCFD0022104B0021062086
:10107000FFF730FE0420FFF7A1FE0E4900F024F830
:1010800001000020FFF7F2FE02B010BD008000401A
:101090003CB0004030B00040002F68590080024052
:1010A000008C864700C00240001BB7004059730700
:1010B000006CDC0240420F0001480421014B18473C
:1010C000C00100209D0E0010114A936F9B0813D29F
:1010D00010665166002905D0FFE7FFE7FFE7516F73
:1010E000106F704704B5002801D00020C04302F003
:1010F0002FFB002104BDC046F0B5146E556E576F2E
:10110000166FFFF7E5FF1466556657671667F0BD63
:10111000000000D0132370B51D78012D19D014DD07
:101120001F48FFF7B3FE06001E48FFF7AFFE1E4C38
:1011300080223100200000F0C1F8022D2DD01B4884
:10114000FFF79CFE1A4B186070BD1A4B164CA36437
:10115000F5E7184B144C23606360A360E3602361E0
:101160006361A361E36123626362A362E362236359
:101170006363A363E36323646364A364E364236539
:101180006365A365E36523666366A366E366236719
:101190006367A367E367A364D1E7064BA364CEE765
:1011A0005344000053460000C80800204C330000A0
:1011B000800D0020B911001007B5604601880A0AA9
:1011C0000230DF2AFAD1C9B2820804D302884088EB
:1011D0000004104300E00068014A5050039007BD2E
:1011E000C8080020132310B512481C78FFF74EFEE4
:1011F0000100012C0AD003DD80220F4800F05EF8C8
:101200000E48FFF73BFE0E4B186010BD0A4C5422EF
:10121000200000F053F80B4B6365A365E36523667C
:101220006366A366E36623676367A367E367236276
:10123000E361E5E753460000C80900204C33000095
:10124000800D00204912001007B5604601880A0A87
:101250000230DF2AFAD1C9B2820804D3028840885A
:101260000004104300E00068014A5050039007BD9D
:10127000C809002010B5040001F0ACFD002804D01E
:10128000034B04199C4200D810BD0248FFF796F8A2
:10129000000004201838001010B501F0A5FD10BDA5
:1012A00001480421014B1847D00100209D0E001079
:1012B000014B1B6818470000D0010020014B5B6800
:1012C00018470000D001002010B5002800D110BD43
:1012D00000F030F9FBE7C04610B5094A0300146876
:1012E00084B0002C08D0012200910648524203A984
:1012F000A047012004B010BD00F066F90020F9E716
:10130000C40C0020C912001000BEFDE7094A03000A
:101310001068002805D00849C3188B4207D813600D
:10132000704706480449C31810608B42F7D9012062
:101330004042F5E7C00C002000000420580E0020B9
:1013400010B5FFF7E1FFC04670B5FFF7E5FD074DAB
:10135000074EB54209D20024013E761BB60808CDDF
:10136000984723000134B342F9D170BDAC37001067
:10137000B4370010030010B5080011001B6898472F
:1013800010BDC046F0B5C64600B5437D07000C0051
:101390001600002B46D0002A17DD0B780A2B24D02C
:1013A00000239846012E13D001252900635C0135E6
:1013B0000A2B26D0B542F8D1464509DCA419013CD8
:1013C00023780D3B5A4253413B7580BCB846F0BD73
:1013D0004346E018A419F11A013C3B68984723786A
:1013E0000D3B5A4253413B75EFE7037D002BD7D1AC
:1013F00002210F483B689847012EDFD00123984611
:10140000D2E7631E5B5C0D2BD4D0884504DA4346DB
:10141000C91AE0183B689847022105483B68A8466E
:101420009847C7E70368110020009847CDE7C046FA
:10143000DC380010F0B54546DE464E465746E0B56E
:1014400083B091461C0080460D00FFF7BFFB0023D0
:10145000304A12184B41002B02DA01222E4B524225
:101460002E4908008A4602F07BF907006B1C03D165
:10147000404601F0E3FF0500002C27D0284E294B01
:101480001C68002C18D04B46002B21D1264B9946C6
:1014900002E02469002C0FD02368002BF9D04B46C2
:1014A0001B68002B01D09C42F3D120002A0041464A
:1014B000B0472469002CEFD1002F26D1280003B0BB
:1014C000F0BCBB46B246A946A046F0BD174ED6E7D3
:1014D000154B99460A239B4602E02469002CEBD069
:1014E0002368002BF9D04B461B68002B01D0A34288
:1014F000F3D12A0041462000B0476B465A462000EF
:10150000DA71D91D0122B047E7E7504602F018F919
:10151000D4E7C04640420F00FFFFFF7F4007002096
:1015200085130010B40C0020BC0C002075130010B3
:1015300000207047F0B5CE46474680B583B06B4675
:101540000600DD1D2870FFF741FB0023194A121821
:101550004B41002B02DA0122174B52421749080077
:10156000884602F0FDF8164B81461C68002C14D00A
:10157000144F02E02469002C0FD02368002BF9D00F
:101580003B68002B01D09C42F4D1200001222900AD
:10159000FFF7F8FE2469002CEFD14B46002B05D154
:1015A000300003B0C0BCB946B046F0BD404602F0C2
:1015B000C7F8F5E740420F00FFFFFF7F400700201C
:1015C000B40C0020BC0C002070B5040001F036FF04
:1015D00001230100050001222000FFF72BFF084B2B
:1015E0001C68002C06D06368002B05D0984724693E
:1015F000002CF8D1280070BD2469002CF3D1F9E744
:10160000B40C0020F8B50E00EFF3108772B60C4B47
:1016100084009B681D59A94204D00A4B9D420AD2FE
:10162000FFF774FC064B9B681E51BFF35F8F87F377
:1016300010882800F8BD044B9D42F3D3F0E7C04664
:1016400000ED00E0C0010010CC010010F0B5C6466E
:1016500000B5040001F018F8374A384E136801331A
:1016600013603368002B34D0354BE26A98461B6810
:10167000002B28D0334D34490B6801330B60334BBA
:101680001968914200D21A6093009B189B00E918D8
:101690004A689068A26084466746E060201D7860D2
:1016A0009060EA5861610132EA5000F0F9FF434668
:1016B0001B68002B04D03368DA6AE36A9A4211D3BC
:1016C00080BCB846F0BD3368DB6A9342D2D8346040
:1016D000D0E734601368012B07D0194BE26A9846B3
:1016E000184DC8E700F0C4FFEAE77823154D984687
:1016F0002F00A8443800143701F064F84745F9D1A9
:10170000134B9846180001F05DF8124F380001F0B5
:1017100059F8114801F056F8104801F053F81048F4
:1017200001F050F842460F4B1A600F4BE26A1F60FF
:10173000034B98469FE7C0468C0D0020F40C002018
:101740001C0E0020080D0020980D00209C0D00208C
:10175000C80D0020DC0D0020080E0020340E0020F3
:10176000200E0020FC0C0020000D0020F0B5C64625
:10177000124B00B59846124D124F134E14E000F074
:1017800083FFFB68DC68201D01F050F83368013BE3
:1017900033602B68013B2B6000F082FF206B00F070
:1017A000EDFE200000F0EAFE2B68002BE7D1434657
:1017B0001B68012BF8D900F05BFFF5E7080D00204E
:1017C000900D0020340E00208C0D0020F0B5DE4678
:1017D00057464E4645464B4BE0B51A6883B001323A
:1017E00094461A60002A6ED0474900220B68904642
:1017F0009C455BD3454B99461B681B68002B52D018
:10180000434B444E9A46444B01919B4638E000219D
:1018100059611168013911609A6A002A0DD0D9699D
:10182000186A556888604160190018318D4263D08C
:10183000002199621168013911605246D96A126813
:10184000914201D9524611608A0052189200B5188F
:10185000686887689860DF607C6084605D61B35809
:101860000133B3505B461B684246DB6A8B429B41A7
:101870005B421A434B461B6890461B68002B11D0F5
:101880004B461B68DB68DB685A68944536D35A6957
:101890009868D9681C1D816048605068A042B6D124
:1018A0005160B4E7019901235B420B601B4B186840
:1018B000431E98414346184303B0F0BCBB46B246B2
:1018C000A946A046F0BD114B154A1968106818606A
:1018D000116014490A6801320A601A681268002A05
:1018E00004D1012308495B420B607EE71B6806496F
:1018F000DB681B680B6078E7506099E701990A6024
:10190000D4E7C046480E0020FC0D0020FC0C00204F
:101910009C0D0020080D0020F40C0020540E002027
:10192000000D0020000E0020F8B5CE464746984630
:10193000930080B5070018000D00994600F012FED4
:10194000061E00D182E0702000F00CFE041E00D1C3
:1019500079E070220021FFF7ABFC4A460723043AE6
:101960002663B6189E43002D48D034222B78A3540A
:10197000002B43D06B780132A354002B3ED0AB78C0
:101980000132A354002B39D0EB780132A354002B41
:1019900034D02B790132A354002B2FD06B79013234
:1019A000A354002B2AD0AB790132A354002B25D0AD
:1019B000EB790132A354002B20D02B7A0132A354AF
:1019C000002B1BD06B7A0132A354002B16D0AB7ABC
:1019D0000132A354002B11D0EB7A0132A354002B17
:1019E0000CD02B7B0132A354002B07D06B7B013230
:1019F000A354002B02D04223AA7BE254089D052D5C
:101A00001FD8201DE562656400F0E8FE2000183054
:101A100000F0E4FE06235B1BA36142463900300060
:101A20002461646200F014FE099B2060002B00D04A
:101A30001C602000FFF70AFE0120C0BCB946B0467A
:101A4000F8BD0525DDE7300000F098FD012040429B
:101A5000F3E7C046F8B5040000F016FE254E002C52
:101A600042D0271D380000F0E1FEA36A002B03D00E
:101A70002000183000F0DAFE1F4A204D13680133B1
:101A800013603368A34221D02B681D4A1368013BC1
:101A900013601C4B1A681268002A13D01B68DB689D
:101AA0001A68194B1A6000F0FBFD206B00F066FD10
:101AB000200000F063FD2B68002B02D03368A342A6
:101AC00014D0F8BD104B013A1A60ECE72B68002BDC
:101AD000DBD039000D4800F085FE0D4A1368013354
:101AE000136000F0DDFDE6E73468BAE700F0C0FD02
:101AF000E7E7C046F40C0020980D00201C0E0020E3
:101B00008C0D0020FC0C0020FC0D0020340E002069
:101B1000900D00208020F8B58000224F224E00F06A
:101B200021FD051E28D0702000F01CFD041E26D0CB
:101B300070220021FFF7BCFB07232563FD35FF352D
:101B40009D431A4B201D636300F048FE20001830AF
:101B500000F044FE062300223900A361280024611E
:101B6000646200F075FD206020003460FFF76EFDB8
:101B700000F0B4FC012806D00D4B1B68F8BD28000E
:101B800000F0FCFCF8E772B601220A4B52421A60E0
:101B9000094B02321A600022084B1A6000F0BEFDA9
:101BA000EAE7C0466D170010F40D002049444C458B
:101BB000E0380010FC0D00201C0E0020480E002014
:101BC000024A1368013313607047C046940D002029
:101BD000F0B5DE4657464E464546E0B583B000F0C8
:101BE00053FD534C2368013B23602368002B00D036
:101BF00081E0504B1B68002B7DD04F4B9C461B68EF
:101C0000002B00D190E04D4B4D4D98464D4B01942B
:101C100099464D4B9A4600239B466346DB68DB683A
:101C2000D869196A9A6A8160486018005668183045
:101C3000864200D172E059469962116801391160FB
:101C40005A699868D968566881604860181D86424C
:101C500062D01168013911604146DA6A09688A4226
:101C600001D941460A60910089188C002E197168CB
:101C70008F689960DF60786088605E612B590133FE
:101C80002B514B461B68DB6A9A423FD953460122CF
:101C90001A6063461B68002BBFD12C4B019C1A684D
:101CA0001268002A3CD01B68DB681A68284B1A604F
:101CB000284E3568002D14D0012708E0FFF786FD77
:101CC000002801D053461F60013D002D08D0236835
:101CD000002BF3D03368013D01333360002DF6D182
:101CE000356053461B68002B05D0164B01241B683A
:101CF00000F0BEFC00E0002400F0D2FC200003B0A5
:101D0000F0BCBB46B246A946A046F0BD63461B6880
:101D1000002B00D081E7C0E751609AE751608AE765
:101D20000B4B013A1A60C3E7074B9A46C0E7C0461F
:101D3000940D00208C0D0020080E00209C0D00202A
:101D4000080D0020F40C0020540E0020FC0C002094
:101D5000FC0D0020040E0020F0B5C646040000B5BE
:101D600000281DD0154A136801331360144B154D1C
:101D70001E68154BA4191F68144B1B6828689846E9
:101D8000043000F053FD2B6829685C600431A642E2
:101D90000BD9404600F032FDFFF71AFF002801D1B1
:101DA00000F066FC80BCB846F0BD380000F026FDAF
:101DB000074B1A689442EFD21C60EDE7940D0020A7
:101DC000480E0020F40C0020FC0C0020000D002028
:101DD000FC0D0020014B18687047C046480E0020DB
:101DE000064B10B51B68002B02D1FFF7EFFC10BDAE
:101DF000034A0020136801331360F8E7940D0020B4
:101E0000040E0020234B30B51B68002B03D00122A9
:101E1000214B1A6030BD204A204D13602C682049A8
:101E2000A3001A1992008A58002A2DD1621E93002D
:101E3000981880000858002816D1A21E9300981800
:101E40008000085800280FD1E21E930098188000E7
:101E50000858002808D1221F9300981880000858BD
:101E6000002801D1621F93009B189B00CC1860686A
:101E700008334068C9186060884207D0094BC168C0
:101E800019602A601B68C5E72200EDE7E068606022
:101E9000F4E7C046940D0020540E00209C0D002055
:101EA000080D0020F40C0020F0B5C6460C001E4DB5
:101EB00000B52968183100F0A1FC1C4B1E681C4BB2
:101EC0001F681C4B1B6828689846043000F0AEFC65
:101ED000631C15D02B682968A4195C600431A642E4
:101EE00005D9404600F08AFC80BCB846F0BD3800F9
:101EF00000F084FC104B1A689442F5D21C60F3E7A2
:101F00000E4B29685A688A6090682968C8602968F9
:101F1000043141602968043191602A6853611A686C
:101F200001321A60E0E7C046F40C0020480E0020A1
:101F3000FC0C0020000D0020FC0D0020200E0020D5
:101F4000F0B5C646294C43680D00216800B59E686F
:101F5000CB6121680E6221681831716021681831E7
:101F6000996023689862036801330360204B002A5C
:101F70001DD01B681F4B1B681F4B1B68206804305B
:101F800000F054FC1D4B21685A688A6090682168F3
:101F9000C860216804314160216804319160226881
:101FA00053611A6801321A6080BCB846F0BD1E68E1
:101FB000104BAD191F68104B1B6820689846043001
:101FC00000F034FC236821685D600431AE4208D81B
:101FD000380000F013FC0A4B1A689542E4D21D60E9
:101FE000E2E7404600F00AFCDEE7C046F40C0020C1
:101FF000480E0020FC0C0020000D0020200E0020C8
:10200000FC0D0020C368F0B5DB68D869196A9A6ACC
:1020100081604860180054681830844241D0002123
:102020009962116801391160234AD96A1268002A3D
:1020300029D15A699C68D8681D1DA0604460546805
:10204000AC4230D01068013810601C4A10688842D9
:1020500025D38A001A485218920086187468A76817
:102060009C60DF607D60A5605E61835801338350B2
:10207000144B00201B68DB6A8B4203D20122124BF7
:1020800001301A60F0BD114A5468A568DC611D6218
:102090006860A0609A62136801331360E8E711601A
:1020A000D7E75160BBE75060106801381060034A01
:1020B00010688842CDD2F2E7940D00209C0D0020DC
:1020C000080D0020F40C0020540E0020080E002003
:1020D000034B1B680360034B1B6843607047C0469B
:1020E000000E0020480E0020F0B5C6460D0000B5D9
:1020F000040000F0C9FA114A2B681168581C1BD063
:102100000F4E60683768B846276847450AD088424E
:1021100008D8002301242B6000F0C2FA200080BC04
:10212000B846F0BD0F1ABB42F3D95B1A1B182B60DF
:1021300033682360136863600024EDE7480E0020D5
:10214000000E00200122014B1A607047540E00203F
:10215000F0B5DE4657464E464546E0B5CA4B8BB015
:102160009A46CA4B06AC0393C94B9B46C94B019395
:10217000C94B0593242399465B46D3469A465B4652
:102180001B681E68002E00D0A5E0FFF719FDFFF7C1
:1021900021FE039A04901368834200D9ACE05346B1
:1021A0001B6810601A6853425A41049BF11A019B44
:1021B000186800F0A7FDFFF70BFD002800D130E103
:1021C000102200212000FFF773F8019B002221005C
:1021D000186800F089FB0028D1D02368A068002B84
:1021E00071DBA5686B69002B02D0281D00F01EFB77
:1021F000FFF7F0FD039B06001B68984200D2C7E082
:10220000039B1E602368092BDFD8059A9B00D358D7
:102210009F464B46E85C01234A460343AB54616842
:10222000AA692D618B186B60B34200D9FCE0711A6A
:102230008A4231D8410710D4012398434B46E854D1
:1022400028002B6A9847C0E7F31A9A4200D910E198
:102250002B6A280098473B00AA69D7186F602D6148
:10226000BE42F1D29E4201D2BB42F1D95B46291D4A
:10227000186800F0C3FAE3E74B460122EB5C134316
:102280004A46AB5463682D619A19AB616A60B242E9
:1022900000D9CEE0002B98D05346291D186800F0D5
:1022A000ADFA92E74B460122EB5C93434A46AB54AE
:1022B0008BE74B46EB5C9A0700D4D6E001229343B0
:1022C0004A46AB5481E76368E16898472368002B6E
:1022D00000DA7AE785E7DB681E68FFF771FCFFF735
:1022E00079FD039904900B68834205D80860864203
:1022F00000D8A4E0002258E75B461B681A68002A51
:102300003AD0042290460BE0012293434A46AB5454
:102310002B6A280098475B461B681A68002A2BD056
:10232000DB68DD681F682B1D1800029300F07EFA41
:102330004B464246EB5C1A42E6D0AB692D61DE1992
:10234000FF436E60BB420AD83700FF432B6A280068
:102350009847AB692D61F6186E60BB42F4D95346BD
:102360000299186800F04AFA2B6A280098475B46E1
:102370001B681A68002AD3D15246594612680A606F
:1023800052461360039B049A1A60FFF721FC17E77B
:102390005B461B681A68002A3CD0029504900BE04B
:1023A000012293434A46AB542B6A280098475B4668
:1023B0001B681A68002A2BD0DB68DD681F682B1D9C
:1023C0001800984600F032FA4B460422EB5C1A42A1
:1023D000E6D0AB692D61DE19FF436E60BB420AD8BF
:1023E0003700FF432B6A28009847AB692D61F61828
:1023F0006E60BB42F4D953464146186800F0FEF9BE
:102400002B6A280098475B461B681A68002AD3D1BC
:10241000029D049E5246594612680A605246136055
:10242000EEE600F025F9CBE6B14202D9994200D898
:1024300000E75B46291D186800F0E0F9C5E6FFF7E4
:10244000C7FB5B461B68DB68DF683D1D280000F0AA
:10245000EDF94B46FB5C5A0711D4012293434A46DF
:10246000BB5438003B6A9847AAE6280000F086F87B
:10247000ABE65346291D186800F0C0F9E0E6A8460F
:102480003300049D11E0C046F80C0020F80D002038
:10249000040D00204C0E0020E4380010EB1A9A4284
:1024A00014D83B6A380098473300BA693F619E18D8
:1024B0007E60AE42F2D9AB4201D9B342F1D9454672
:1024C0005B462900186800F099F9CAE7454653466B
:1024D0002900186800F092F9C3E7C04670B582B0D1
:1024E00000F0D2F8164C2368002B11D000F0D8F879
:1024F00023680020002B09D0124B80220193032374
:102500001149009311480023FFF70EFA02B070BD85
:102510000F4E300000F056F90E4D280000F052F931
:102520000D4B00221E600D4B10210A201D6000F093
:102530008DF920600028D9D0094900F02FFBD5E79C
:102540004C0E0020500E0020743800105121001055
:10255000A00D0020B40D0020F80C0020040D002078
:102560006C38001010B50400FFF72AFB2000FEF7BE
:1025700081FE0400FFF72CFB200010BD10B5041EE7
:1025800006D0FFF71DFB2000FEF786FEFFF720FBBD
:1025900010BDC04600000000000000000000000068
:1025A0000B4A13681868203080F30988022080F3F2
:1025B0001488BFF36F8F3FBCAE4608BC04BC62B644
:1025C0001847C046C046C046C046C046C046C04682
:1025D000F40C0020000000000000000000000000DB
:1025E000EFF30980164B1A6820381060F0C044469B
:1025F0004D4656465F46F0C00D221207146E556ECA
:10260000566F176F3038F0C008B572B6FFF7FAFB97
:1026100062B60CBC116808681030F0C8A046A94624
:10262000B246BB4680F309880D2212073038F0C845
:102630001466556656671767F0C81847C046C04607
:10264000F40C002010B5FDF7D1FEC0467047C0461F
:1026500010B58024031F64041C60043B1960034907
:10266000043B1960143B40381A6010BD4526001029
:102670008022044B52051A60BFF34F8FBFF36F8F58
:102680007047C04604ED00E072B6044A1368013397
:102690001360BFF34F8FBFF36F8F7047880D00201B
:1026A000034A1368013B1360002B00D162B67047E8
:1026B000880D0020EFF3108072B6704780F3108809
:1026C0007047C04610B5FFF7F5FF0400FFF788FB21
:1026D000002803D08022034B52051A602000FFF728
:1026E000EDFF10BD04ED00E0002310B5084A094CD1
:1026F000052023601360FEF761FBFA218900FEF7D5
:10270000E3FC054B013818600723236010BDC04669
:1027100018E000E010E000E014E000E0FF22134BBE
:102720001204196810B50A431A60FF2219681206CC
:102730000A431A600E490E20FEF764FF0D490F2070
:10274000FEF760FF0C490B20FEF75CFFFFF7CCFFA4
:1027500000220A4B1A60D0221206094B12681A7026
:10276000FFF71EFFFFF74EFBFDF740FE20ED00E0F8
:10277000E1250010C52600104D260010880D002010
:10278000E001002010B5FDF759FE054A054B9446BF
:1027900060448000186000F009F8034B186010BD19
:1027A00040000034F00C0020F00D002010B518207F
:1027B000FFF7D8FE041E03D0002308C000F002F883
:1027C000200010BD0300083301224360C360036191
:1027D00000235242826003607047C04600230361B9
:1027E0007047C04643689A684B608A605160996040
:1027F00003680861013303607047C046030030B5C9
:102800000D6808336A1C0DD01C005B681A68AA4268
:10281000FAD94B60996003688C600133616008618C
:10282000036030BD04696368F3E7C046036941682B
:1028300082688A6051605968814205D00022026135
:1028400018680138186070475A60F7E770B50500DE
:102850000E0000283ED0030C0A0C002B3FD1002AAA
:102860002DD1300068430300493333D84830FFF797
:1028700079FE041E2ED00300002E2ED12360E563C6
:102880002664FFF701FF216CE36B22684B43D018ED
:10289000A06000205B1A6260D218E260FF2344222D
:1028A000A0632000A3540132A3541030FFF78AFF25
:1028B00020002430FFF786FFFFF7F2FE0BE0131C29
:1028C000A9B2B2B24A4380B29BB24343120C9B18E6
:1028D0001B0CC6D00024200070BD4833CEE7002A70
:1028E000F8D1081CECE7C046F0B5CE4647460400D8
:1028F00080B585B088460192FFF7C6FEA56B002D16
:1029000000D029E1019B002B00D1D0E0260002A8D5
:10291000FFF7DEFB44272436FFF7C2FEFFF750F92E
:10292000FFF7B2FEE35D5BB2013301D10023E35553
:102930004522A35C5BB2013301D10023A354FFF70E
:10294000AFFE01A902A8FFF7CFFB00285AD1FFF77D
:102950009BFEA36B002B00D0B1E0FFF7A1FE242368
:102960009946A14448460199FFF79EFAFFF78CFE6D
:102970004523E55C6DB2002D05DC13E0013DEAB2B4
:102980006DB2002A0ED0636A002B0BD04846FFF7C9
:1029900039FB0028F2D0013DFFF7D4FBEAB26DB25B
:1029A000002AF0D14523FF22E254FFF779FEFFF71A
:1029B0006BFE4423E55C343B99466DB2A144002D87
:1029C00005DC13E0013DEAB26DB2002A0ED02369A6
:1029D000002B0BD04846FFF715FB0028F2D0013D35
:1029E000FFF7B0FBEAB26DB2002AF0D14423FF2218
:1029F000E254FFF755FEFFF7EBF800284ED1FFF742
:102A000037FE4BE0FFF740FE4523E55C6DB2002D3D
:102A100005DC13E0013DEAB26DB2002A0ED0636A14
:102A2000002B0BD03000FFF7EDFA0028F2D0013D6B
:102A3000FFF788FBEAB26DB2002AF0D14523FF22EE
:102A4000E254FFF72DFEFFF71FFE10239946E55DC8
:102A5000A1446DB2002D05DC13E0013DEAB26DB278
:102A6000002A0ED02369002B0BD04846FFF7CAFA84
:102A70000028F2D0013DFFF765FBEAB26DB2002AF3
:102A8000F0D1FF23E355FFF70BFEFFF7A1F8FFF7A7
:102A9000FBFDA36B002B0AD0FFF702FEFFF7F4FD4E
:102AA000A56B002D58D1019B002B00D034E7FFF718
:102AB000F7FD002005B0C0BCB946B046F0BDFFF739
:102AC000EFFDFFF7E1FD4523E55C213B99466DB243
:102AD000A144002D05DC13E0013DEAB26DB2002AED
:102AE0000ED0636A002B0BD04846FFF78BFA002804
:102AF000F2D0013DFFF726FBEAB26DB2002AF0D119
:102B00004523FF22E254FFF7CBFDFFF7BDFD442331
:102B1000E55C343B99466DB2A144002D05DC13E021
:102B2000013DEAB26DB2002A0ED02369002B0BD012
:102B30004846FFF767FA0028F2D0013DFFF702FB95
:102B4000EAB26DB2002AF0D14423FF22E254FFF72B
:102B5000A7FDFFF73DF8A1E7226C002A08D0E16845
:102B6000A3688918E16099420BD24046FEF7A6FBA4
:102B70002369013DA563002B06D1FFF791FD0120DC
:102B800098E72168E160F0E720001030FFF73AFA9B
:102B90000028F2D0FFF76CFDEFE7C04610B5002922
:102BA00043D0554B5A68904200D18EE01A68002AF3
:102BB0003CD0DA68904200D19CE09A68002A54D058
:102BC0005A69904200D193E01A69002A53D0DA6919
:102BD000904200D180E09A69002A52D05A6A90420D
:102BE00057D01A6A002A58D0DA6A904200D175E0AC
:102BF0009A6A002A57D05A6B904200D170E01A6B43
:102C0000002A56D0DA6B904200D16BE09A6B002A12
:102C100055D05A6C904267D01A6C002A57D0DA6CA3
:102C2000904263D09A6C002A30D010BDDA6890428E
:102C300060D05A6990425BD01A00DC69A0424BD048
:102C40005C6AA04225D0DC6AA04247D05C6BA042FF
:102C500046D0DC6BA04245D05C6CA04244D0DC6C1A
:102C6000A04243D011605060DFE75A6990423FD0E4
:102C70001A000832E1E7DA6990422DD01A001032CA
:102C8000DEE75A6A904204D01C4ADCE748331A0057
:102C9000E8E70422D2009A18E4E7DA6A90421DD0ED
:102CA0001A002032D2E75A6B904219D01A0028320B
:102CB000CFE7DA6B904215D01A003032CCE75A6C6D
:102CC000904211D01A003832C9E70022E2E7DA6CEC
:102CD00090420BD00A4AC5E70322DBE70522D9E779
:102CE0000622D7E70722D5E70822D3E70922D1E752
:102CF0000222CFE70122CDE7C80A0020E00A002027
:102D0000080B002070B5050016000C00FFF7BCFC96
:102D10004422AB5C5BB2013301D10023AB544522AA
:102D2000AB5C5BB2013301D10023AB54FFF7B8FCBD
:102D3000AB6B002B46D0FFF7A7FC4523EC5C64B2DD
:102D4000002C16DD2E00243604E0013CE2B264B211
:102D5000002A0ED06B6A002B0BD03000FFF752F91F
:102D60000028F2D0013CFFF7EDF9E2B264B2002A8C
:102D7000F0D14523FF22EA54FFF792FCFFF784FCD1
:102D80004423EC5C64B2002C16DD2E00103604E007
:102D9000013CE2B264B2002A0ED02B69002B0BD0AA
:102DA0003000FFF72FF90028F2D0013CFFF7CAF9F5
:102DB000E2B264B2002AF0D14423FF22EA54FFF7C2
:102DC0006FFC70BD2800320021002430FFF7B8F8F6
:102DD000B1E7C04610B5034B0100186800F00EF8CB
:102DE00010BDC046F805002010B5034B010018685F
:102DF00000F0ACFB10BDC046F8050020F0B54E4613
:102E00004546DE465746E0B50D000B35060085B059
:102E1000162D21D8102900D9D4E000F0D5FA1025BC
:102E200018230221CA4FFB181A005C68083A944222
:102E300000D186E103226368A1689343E268CA6017
:102E400091600121E3185A6830000A435A6000F08B
:102E5000C3FA20000830B8E007239D4300D5B1E055
:102E6000A94200D9AEE000F0AFFAFC235B009D421E
:102E700000D2E0E1690A00D1AEE0042900D9A1E165
:102E800038239846A90988443931CB000822524298
:102E90009446AF4FFB189C446346DC68A44514D0AD
:102EA000032399460B0061469C4607E0E068002A30
:102EB00000DB40E1814200D141E104004A46636801
:102EC00093435A1B0F2AF1DD41463A003C69083210
:102ED000944200D11EE1032063688343581B0F28EE
:102EE00000DDACE13A617A610028AADA7A6890469E
:102EF00080229200934200D336E1DA085809012378
:102F00008340404618438046D300DB199A687860B6
:102F1000E360A2609C60D46001208B109840404523
:102F200062D8434603420AD10323994343464000F3
:102F30000431034203D1400004310342FBD0032398
:102F4000B3469C460E00B8460190F0004044010094
:102F5000B246CB680BE064465A681F00A243DB68A8
:102F6000541B0F2C00DD39E1002C00DB53E19942AA
:102F7000F1D101239946CA44534608319B07E8D151
:102F8000032205E003680838013E834200D013E2C3
:102F90003242F7D14346019A5B68934342465360FD
:102FA000019A520001929A421CD8002A06D119E0D7
:102FB00004229146019ACA44520001921342F7D06A
:102FC0005646C2E70C233360002005B0F0BCBB4678
:102FD000B246A946A046F0BD80233F22402190463C
:102FE0009B0053E75E4647460322BC6863689343F1
:102FF0009846AB4203D35B1B0F2B00DD8DE0230013
:1030000043440293534B08201B6810335B19019310
:1030100000F006FA504903900B688A46013306D047
:103020008446019B4242013B6344134001933000BC
:10303000019900F0D9F903008146013300D11CE168
:10304000029B834200D916E1444B02989B461A68C2
:10305000019B59469C4662440A60039901394845E0
:1030600000D157E153461B68013300D15EE14B4666
:1030700002981B1A9B185A46136007234A46484673
:103080001A400292184200D115E103980133844698
:103090009B1A019A99444A44019263440A409B1A3C
:1030A000194030008A4600F09FF9431C00D158E1D6
:1030B0004B46C01A0300534401935B461A68012033
:1030C00052441A604B464946BB60019B03434B6028
:1030D000BC4213D043460F2B00D82BE107210C3BF9
:1030E0008B4361680140052019436160E118486025
:1030F00088600F2B00D93FE14B465B681849086890
:10310000904200D20A6017490868904200D20A60D3
:103110004C46B4E07B689846FEE601222900134342
:103120001143651961603000BD606B6000F054F9B7
:103130002000083049E7A268D060826081E66146DD
:10314000C3E6DC680231A34200D1BEE672E6C046A7
:10315000F00100204C0B0020E40100201C0B00209B
:10316000440B0020480B00205A0A042A7CD9142A58
:1031700000D9B0E010005B3082465C32D2000820FB
:1031800040428446BA189444624692680B308146A5
:10319000944500D186E00800A2466146844602E0DC
:1031A0009268914204D04C465068A0439842F7D8A8
:1031B000D368614654469C466346A260E3609C60C7
:1031C000D460A9E6142967D9542900D98CE06E236C
:1031D0009846290B88446F31CB0057E6BA46012048
:1031E000514684464919054350464560856847461F
:1031F0006046EB605E469D605346396179612043CD
:1032000008374860CF6030008F609C5000F0E4F8D1
:1032100050460830D9E6BA4601205E46524451680D
:1032200001435160BA683000D3609A6000F0D4F86E
:1032300038000830C9E62B00E9080833F2E56119C7
:10324000884601218C460D434146656039617961AC
:10325000CA608A60624602434A60E050300000F073
:10326000BBF820000830B0E69A0910003932383037
:103270008246D20083E7BC4241D0BC686368032227
:1032800093431A005B1BAA4202D30F2B00DD44E7D5
:10329000300000F0A1F897E65B23984688445C3143
:1032A000CB00F3E553469810012383404046184372
:1032B0008046786080E7019B039A4B440B40D31A09
:1032C000194030008A4600F08FF8431C00D0EFE62A
:1032D00000239A46F1E6542A2ED81A0B10006F32BA
:1032E0006E308246D2004AE7AA235B0099422ED86C
:1032F000DD3B9846E90B88447831CB00C6E5304B7E
:103300009B461A68019B9C465B4662441A60039B7D
:10331000591EA7E64846084200D0A3E6B9684344D0
:10332000894601210B4349464B60E7E653464A462E
:103330001A60A2E64860ABE7AA204000824226D885
:10334000DA0B1000783277308246D20017E71D4B37
:10335000994226D87C239846A90C88447D31CB001D
:1033600094E5019A029B94464A46083B63449B1AA3
:10337000019300239A46A0E621003000083100F0B6
:10338000E5F85B461A68BB6899465B68B6E60D4887
:1033900082420CD89A0C10007D327C308246D200DA
:1033A000EDE6FE237E227F2190469B006EE5FE2205
:1033B0007E2092008246E2E643465B68F0E5C04626
:1033C0001C0B00205405000010B5024800F024F842
:1033D00010BDC046180B002010B5024800F01EF8C2
:1033E00010BDC046180B0020002370B5064C050028
:1033F00008002360FDF78AFF431C00D070BD2368DE
:10340000002BFBD02B60F9E7B80C0020014B1868AB
:103410007047C046F80500207047C0467047C04658
:10342000802310B55B01082801D1180010BDFFF7FB
:10343000EDFF16230360173BF7E7C04610B583077F
:103440000AD00300032102E001330B4205D01A78B1
:10345000002AF9D1181A10BD030019680C4A0D4C46
:103460008A188A4322420FD15968094A04338A18BC
:103470008A43224208D15968054A04338A188A438C
:103480002242F1D000E001331A78002AFBD1E1E7B3
:10349000FFFEFEFE80808080F0B5C646060000B5C7
:1034A00008200D00FFF7BCFF04003000FFF78CFF81
:1034B000234B210098469B685F6803239F43380095
:1034C0001138401B0019FDF7FFFD451E6543AC4256
:1034D00008DC00213000FFF787FF43469B68DB19BB
:1034E000984206D03000FFF777FF002080BCB84636
:1034F000F0BD30006942FFF777FF01300ED00122A6
:1035000043467F1B9B6817430E4A5F601368300079
:103510005B1B1360FFF760FF0120E7E7002130002D
:10352000FFF762FF43469A68831A0F2BDADD064CD9
:1035300004492468001B086001210B435360D1E754
:10354000F00100201C0B0020E4010020F0B5D6465D
:103550004F46464605000C00C0B5002948D0FFF78D
:1035600033FF2100012708394B6803209C46BB43E9
:10357000CE18726882436046384080466A48914659
:103580008468B44200D17CE07260B41864683C4046
:10359000A2464446002C30D10C68A446091B8C6816
:1035A0006344A4460824A0468044C4455CD0CC684B
:1035B000A04664464246E26094605246002A1FD00C
:1035C0001F434F60336080229200934230D2DA086A
:1035D0005C090123A340446823434360D3001B18C4
:1035E0009A68CB608A609960D1602800FFF7F4FE8A
:1035F000E0BCBA46B146A846F0BD5246002A0FD1FB
:1036000001224B44CF18BC46B468484F1A43BC4211
:103610005BD0F668E660B4604A6062461360D2E749
:1036200062463A434A608022336092009342CED38E
:103630005C0A042C3FD89C09260039343836E40053
:1036400004192268083C0327944203D14EE0926893
:10365000944203D05068B8439842F8D8D468CC60FC
:103660008A60A160D160C0E75246002A35D14B4440
:103670001A00B068F3681743C36098604F608A50BF
:10368000B3E74B441A004346002B06D10B68C91A16
:103690008C68D218CB68E3609C60012313434B60B5
:1036A000234B81601B6893429FD8224B28001968E6
:1036B000FFF7F2FE99E7142C13D9542C1DD81C0BDC
:1036C00026006F346E36E400BAE7E160A1604A601C
:1036D0006246CC608C60136087E71F434F603360A5
:1036E00083E726005C345B36E400A9E70123B610CB
:1036F000B340466833434360B1E7AA225200944284
:1037000005D8DC0B260078347736E40098E70A4ABF
:10371000944205D89C0C26007D347C36E4008FE76B
:10372000FE247E26A4008BE7F0010020F801002093
:10373000E80100204C0B002054050000F8B5C046FD
:1037400001B40248844601BC604700BF5901002013
:1037500001B40248844601BC604700BF81010020DB
:1037600001B40248844601BC604700BFC10000208C
:10377000410F00106D0F0010B9100010A1120010C1
:1037800015110010E5110010E10F0010890F001055
:10379000A90F0010BD0F00101D050010C50F00106F
:1037A0009D080010090F001071040010B1020010F4
:0437B0008527001059
:1037B400496E697400000000426C696E6B79000008
:1037C4000A2A2A2A2050414E4943202A2A2A0A003A
:1037D4000A0000006E6F7420737570706F727465E8
:1037E40064000000486172647761726520616C61F5
:1037F400726D20256420616C726561647920636C4C
:1038040061696D65640000004861726420617373CE
:10381400657274004F7574206F66206D656D6F72EC
:103824007900000052656C6561736500626F6F74A6
:10383400325F77323571303830000000302E31007D
:10384400322E312E310000007069636F00000000D9
:103854006669726D776172650000000041707220C4
:103864003236203230323500546D7251000000007F
:10387400546D72205376630006005250D3F07542A3
:103884002838001006005250E182887F303800103A
:10389400060052503ABCA91140380010060052509C
:1038A400ABB360534438001006005250BBFF3CB623
:1038B4004C38001006005250861C03025438001085
:1038C400060052505422A29D603800100500525048
:1038D400DE65F468B43F00100D0A00000500000026
:1038E400CA2100101222001012220010A42200107B
:1038F40078220010B22200101222001012220010AE
:08390400A4220010782200103B
:10390C007C3800108838001094380010A038001053
:10391C00AC380010B8380010C4380010D038001083
:10392C00F0B5C646150000B504001E000268EFF3A2
:10393C00108172B61368002BFCD0BFF35F8F042389
:10394C00E3562268002B2BDBBFF35F8F0020106047
:10395C0081F31088D02212061278002752B29046BA
:10396C009A420ED1002080BCB846F0BDBFF35F8FE9
:10397C00176081F310882800310000F035F800281A
:10398C00F0D12268EFF3108172B61368002BFCD0D3
:10399C00BFF35F8F237922687F2BE7D9434602E080
:1039AC00D0231B061B682371BFF35F8F00231360AA
:1039BC0081F310880120D6E70268EFF3108172B60C
:1039CC001368002BFCD0BFF35F8FFF2303710368D8
:1039DC00BFF35F8F00221A6081F3108840BF7047DD
:1039EC007047C0460000000001B40248844601BC88
:1039FC00604700BF9D0A001010000000000000008E
:103A0C0000000000000000000000000000000000AA
:103A1C00480700200000000000000000000000002B
:103A2C00503300004C33000054330000523300007C
:103A3C004D5300004D43000053340000433400004C
:103A4C00FF000000FFFFFFFF00000200000000006D
:103A5C000000000000000000F0010020F001002038
:103A6C00F8010020F80100200002002000020020D4
:103A7C000802002008020020100200201002002082
:103A8C001802002018020020200200202002002032
:103A9C0028020020280200203002002030020020E2
:103AAC003802002038020020400200204002002092
:103ABC004802002048020020500200205002002042
:103ACC0058020020580200206002002060020020F2
:103ADC0068020020680200207002002070020020A2
:103AEC007802002078020020800200208002002052
:103AFC008802002088020020900200209002002002
:103B0C009802002098020020A0020020A0020020B1
:103B1C00A8020020A8020020B0020020B002002061
:103B2C00B8020020B8020020C0020020C002002011
:103B3C00C8020020C8020020D0020020D0020020C1
:103B4C00D8020020D8020020E0020020E002002071
:103B5C00E8020020E8020020F0020020F002002021
:103B6C00F8020020F80200200003002000030020CF
:103B7C00080300200803002010030020100300207D
:103B8C00180300201803002020030020200300202D
:103B9C0028030020280300203003002030030020DD
:103BAC00380300203803002040030020400300208D
:103BBC00480300204803002050030020500300203D
:103BCC0058030020580300206003002060030020ED
:103BDC00680300206803002070030020700300209D
:103BEC00780300207803002080030020800300204D
:103BFC0088030020880300209003002090030020FD
:103C0C009803002098030020A0030020A0030020AC
:103C1C00A8030020A8030020B0030020B00300205C
:103C2C00B8030020B8030020C0030020C00300200C
:103C3C00C8030020C8030020D0030020D0030020BC
:103C4C00D8030020D8030020E0030020E00300206C
:103C5C00E8030020E8030020F0030020F00300201C
:103C6C00F8030020F80300200004002000040020CA
:103C7C000804002008040020100400201004002078
:103C8C001804002018040020200400202004002028
:103C9C0028040020280400203004002030040020D8
:103CAC003804002038040020400400204004002088
:103CBC004804002048040020500400205004002038
:103CCC0058040020580400206004002060040020E8
:103CDC006804002068040020700400207004002098
:103CEC007804002078040020800400208004002048
:103CFC0088040020880400209004002090040020F8
:103D0C009804002098040020A0040020A0040020A7
:103D1C00A8040020A8040020B0040020B004002057
:103D2C00B8040020B8040020C0040020C004002007
:103D3C00C8040020C8040020D0040020D0040020B7
:103D4C00D8040020D8040020E0040020E004002067
:103D5C00E8040020E8040020F0040020F004002017
:103D6C00F8040020F80400200005002000050020C5
:103D7C000805002008050020100500201005002073
:103D8C001805002018050020200500202005002023
:103D9C0028050020280500203005002030050020D3
:103DAC003805002038050020400500204005002083
:103DBC004805002048050020500500205005002033
:103DCC0058050020580500206005002060050020E3
:103DDC006805002068050020700500207005002093
:103DEC007805002078050020800500208005002043
:103DFC0088050020880500209005002090050020F3
:103E0C009805002098050020A0050020A0050020A2
:103E1C00A8050020A8050020B0050020B005002052
:103E2C00B8050020B8050020C0050020C005002002
:103E3C00C8050020C8050020D0050020D0050020B2
:103E4C00D8050020D8050020E0050020E005002062
:103E5C00E8050020E8050020000600200000000016
:103E6C0000000000500B0020B80B0020200C00209C
:103E7C000000000000000000000000000000000036
:103E8C000000000000000000000000000000000026
:103E9C000000000000000000000000000000000016
:103EAC000000000000000000000000000000000006
:103EBC0000000000000000000000000000000000F6
:103ECC0000000000000000000000000000000000E6
:103EDC0000000000000000000000000000000000D6
:103EEC0000000000000000000000000000000000C6
:103EFC0000000000000000000100000000000000B5
:103F0C000E33CDAB34126DE6ECDE05000B00000079
:103F1C000000000000000000000000000000000095
:103F2C000000000000000000000000000000000085
:103F3C000000000000000000000000000000000075
:103F4C000000000000000000000000000000000065
:103F5C000000000000000000000000000000000055
:103F6C000000000000000000000000000000000045
:103F7C000000000000000000000000000000000035
:103F8C000000000000000000000000000000000025
:103F9C000000000000000000000000000000000015
:083FAC0000000000000000000D
:04000005100001E9FD
:00000001FF
